S01D000044726976696E672073746570706572206D6F746F722E73726563C0
S11300000C942A000C9434000C9434000C943400A6
S11300100C9434000C9434000C9434000C9434008C
S11300200C9434000C9434000C9434000C9434007C
S11300300C9434000C9434000C9434000C9434006C
S11300400C9434000C9434000C9434000C9434005C
S11300500C94340011241FBECFE5D4E0DEBFCDBF25
S11300600E949C000C94B7000C940000882381F13A
S113007090E051E044E032E028E052BB6FEF79E6D3
S1130080E8E161507040E040E1F700C0000042BB8D
S11300906FEF79E6E8E161507040E040E1F700C0BD
S11300A0000032BB6FEF79E6E8E161507040E04058
S11300B0E1F700C0000022BB6FEF79E6E8E1615090
S11300C07040E040E1F700C000009F5F9813D5CF77
S11300D00895882381F190E058E042E034E021E083
S11300E052BB6FEF79E6E8E161507040E040E1F720
S11300F000C0000042BB6FEF77E8E3E1615070405D
S1130100E040E1F700C0000032BB6FEF79E6E8E1C0
S113011061507040E040E1F700C0000022BB6FEF87
S113012079E6E8E161507040E040E1F700C000008A
S11301309F5F9813D5CF08958FEF81BB85E00E9410
S113014036002FEF87EA91E6215080409040E1F796
S113015000C0000085E00E9469002FEF87EA91E665
S1130160215080409040E1F700C00000E7CFF894B0
S1050170FFCFBB
S9030000FC
